{
  "_format": "hh-sol-artifact-1",
  "contractName": "MVault",
  "sourceName": "contracts/MVault.sol",
  "abi": [
    {
      "inputs": [],
      "stateMutability": "nonpayable",
      "type": "constructor"
    },
    {
      "anonymous": false,
      "inputs": [
        {
          "indexed": true,
          "internalType": "address",
          "name": "previousOwner",
          "type": "address"
        },
        {
          "indexed": true,
          "internalType": "address",
          "name": "newOwner",
          "type": "address"
        }
      ],
      "name": "OwnershipTransferred",
      "type": "event"
    },
    {
      "anonymous": false,
      "inputs": [
        {
          "indexed": true,
          "internalType": "bytes32",
          "name": "role",
          "type": "bytes32"
        },
        {
          "indexed": true,
          "internalType": "bytes32",
          "name": "previousAdminRole",
          "type": "bytes32"
        },
        {
          "indexed": true,
          "internalType": "bytes32",
          "name": "newAdminRole",
          "type": "bytes32"
        }
      ],
      "name": "RoleAdminChanged",
      "type": "event"
    },
    {
      "anonymous": false,
      "inputs": [
        {
          "indexed": true,
          "internalType": "bytes32",
          "name": "role",
          "type": "bytes32"
        },
        {
          "indexed": true,
          "internalType": "address",
          "name": "account",
          "type": "address"
        },
        {
          "indexed": true,
          "internalType": "address",
          "name": "sender",
          "type": "address"
        }
      ],
      "name": "RoleGranted",
      "type": "event"
    },
    {
      "anonymous": false,
      "inputs": [
        {
          "indexed": true,
          "internalType": "bytes32",
          "name": "role",
          "type": "bytes32"
        },
        {
          "indexed": true,
          "internalType": "address",
          "name": "account",
          "type": "address"
        },
        {
          "indexed": true,
          "internalType": "address",
          "name": "sender",
          "type": "address"
        }
      ],
      "name": "RoleRevoked",
      "type": "event"
    },
    {
      "inputs": [],
      "name": "DEFAULT_ADMIN_ROLE",
      "outputs": [
        {
          "internalType": "bytes32",
          "name": "",
          "type": "bytes32"
        }
      ],
      "stateMutability": "view",
      "type": "function"
    },
    {
      "inputs": [],
      "name": "WITHDRAWER_ROLE",
      "outputs": [
        {
          "internalType": "bytes32",
          "name": "",
          "type": "bytes32"
        }
      ],
      "stateMutability": "view",
      "type": "function"
    },
    {
      "inputs": [
        {
          "internalType": "uint256",
          "name": "_amount",
          "type": "uint256"
        }
      ],
      "name": "deposit",
      "outputs": [],
      "stateMutability": "nonpayable",
      "type": "function"
    },
    {
      "inputs": [
        {
          "internalType": "bytes32",
          "name": "role",
          "type": "bytes32"
        }
      ],
      "name": "getRoleAdmin",
      "outputs": [
        {
          "internalType": "bytes32",
          "name": "",
          "type": "bytes32"
        }
      ],
      "stateMutability": "view",
      "type": "function"
    },
    {
      "inputs": [
        {
          "internalType": "bytes32",
          "name": "role",
          "type": "bytes32"
        },
        {
          "internalType": "uint256",
          "name": "index",
          "type": "uint256"
        }
      ],
      "name": "getRoleMember",
      "outputs": [
        {
          "internalType": "address",
          "name": "",
          "type": "address"
        }
      ],
      "stateMutability": "view",
      "type": "function"
    },
    {
      "inputs": [
        {
          "internalType": "bytes32",
          "name": "role",
          "type": "bytes32"
        }
      ],
      "name": "getRoleMemberCount",
      "outputs": [
        {
          "internalType": "uint256",
          "name": "",
          "type": "uint256"
        }
      ],
      "stateMutability": "view",
      "type": "function"
    },
    {
      "inputs": [
        {
          "internalType": "bytes32",
          "name": "role",
          "type": "bytes32"
        },
        {
          "internalType": "address",
          "name": "account",
          "type": "address"
        }
      ],
      "name": "grantRole",
      "outputs": [],
      "stateMutability": "nonpayable",
      "type": "function"
    },
    {
      "inputs": [
        {
          "internalType": "bytes32",
          "name": "role",
          "type": "bytes32"
        },
        {
          "internalType": "address",
          "name": "account",
          "type": "address"
        }
      ],
      "name": "hasRole",
      "outputs": [
        {
          "internalType": "bool",
          "name": "",
          "type": "bool"
        }
      ],
      "stateMutability": "view",
      "type": "function"
    },
    {
      "inputs": [],
      "name": "maxWithdrawAmount",
      "outputs": [
        {
          "internalType": "uint256",
          "name": "",
          "type": "uint256"
        }
      ],
      "stateMutability": "view",
      "type": "function"
    },
    {
      "inputs": [],
      "name": "owner",
      "outputs": [
        {
          "internalType": "address",
          "name": "",
          "type": "address"
        }
      ],
      "stateMutability": "view",
      "type": "function"
    },
    {
      "inputs": [],
      "name": "renounceOwnership",
      "outputs": [],
      "stateMutability": "nonpayable",
      "type": "function"
    },
    {
      "inputs": [
        {
          "internalType": "bytes32",
          "name": "role",
          "type": "bytes32"
        },
        {
          "internalType": "address",
          "name": "account",
          "type": "address"
        }
      ],
      "name": "renounceRole",
      "outputs": [],
      "stateMutability": "nonpayable",
      "type": "function"
    },
    {
      "inputs": [
        {
          "internalType": "bytes32",
          "name": "role",
          "type": "bytes32"
        },
        {
          "internalType": "address",
          "name": "account",
          "type": "address"
        }
      ],
      "name": "revokeRole",
      "outputs": [],
      "stateMutability": "nonpayable",
      "type": "function"
    },
    {
      "inputs": [
        {
          "internalType": "uint256",
          "name": "_maxAmount",
          "type": "uint256"
        }
      ],
      "name": "setMaxWithdrawAmount",
      "outputs": [],
      "stateMutability": "nonpayable",
      "type": "function"
    },
    {
      "inputs": [
        {
          "internalType": "contract IERC20",
          "name": "_token",
          "type": "address"
        }
      ],
      "name": "setToken",
      "outputs": [],
      "stateMutability": "nonpayable",
      "type": "function"
    },
    {
      "inputs": [
        {
          "internalType": "bool",
          "name": "_isEnable",
          "type": "bool"
        }
      ],
      "name": "setWithdrawEnable",
      "outputs": [],
      "stateMutability": "nonpayable",
      "type": "function"
    },
    {
      "inputs": [
        {
          "internalType": "bytes4",
          "name": "interfaceId",
          "type": "bytes4"
        }
      ],
      "name": "supportsInterface",
      "outputs": [
        {
          "internalType": "bool",
          "name": "",
          "type": "bool"
        }
      ],
      "stateMutability": "view",
      "type": "function"
    },
    {
      "inputs": [
        {
          "internalType": "address",
          "name": "newOwner",
          "type": "address"
        }
      ],
      "name": "transferOwnership",
      "outputs": [],
      "stateMutability": "nonpayable",
      "type": "function"
    },
    {
      "inputs": [
        {
          "internalType": "uint256",
          "name": "_amount",
          "type": "uint256"
        },
        {
          "internalType": "address",
          "name": "_to",
          "type": "address"
        }
      ],
      "name": "withdraw",
      "outputs": [],
      "stateMutability": "nonpayable",
      "type": "function"
    },
    {
      "inputs": [],
      "name": "withdrawEnable",
      "outputs": [
        {
          "internalType": "bool",
          "name": "",
          "type": "bool"
        }
      ],
      "stateMutability": "view",
      "type": "function"
    }
  ],
  "bytecode": "0x60806040523480156200001157600080fd5b5062000032620000266200005c60201b60201c565b6200006460201b60201c565b620000566000801b6200004a6200005c60201b60201c565b6200012860201b60201c565b620003b7565b600033905090565b60008060009054906101000a900473ffffffffffffffffffffffffffffffffffffffff169050816000806101000a81548173ffffffffffffffffffffffffffffffffffffffff021916908373ffffffffffffffffffffffffffffffffffffffff1602179055508173ffffffffffffffffffffffffffffffffffffffff168173ffffffffffffffffffffffffffffffffffffffff167f8be0079c531659141344cd1fd0a4f28419497f9722a3daafe3b4186f6b6457e060405160405180910390a35050565b6200013a82826200013e60201b60201c565b5050565b6200015582826200018660201b62000ca01760201c565b6200018181600260008581526020019081526020016000206200027760201b62000d801790919060201c565b505050565b620001988282620002af60201b60201c565b6200027357600180600084815260200190815260200160002060000160008373ffffffffffffffffffffffffffffffffffffffff1673ffffffffffffffffffffffffffffffffffffffff16815260200190815260200160002060006101000a81548160ff021916908315150217905550620002186200005c60201b60201c565b73ffffffffffffffffffffffffffffffffffffffff168173ffffffffffffffffffffffffffffffffffffffff16837f2f8788117e7eff1d82e926ec794901d17c78024a50270940304540a733656f0d60405160405180910390a45b5050565b6000620002a7836000018373ffffffffffffffffffffffffffffffffffffffff1660001b6200031a60201b60201c565b905092915050565b60006001600084815260200190815260200160002060000160008373ffffffffffffffffffffffffffffffffffffffff1673ffffffffffffffffffffffffffffffffffffffff16815260200190815260200160002060009054906101000a900460ff16905092915050565b60006200032e83836200039460201b60201c565b620003895782600001829080600181540180825580915050600190039060005260206000200160009091909190915055826000018054905083600101600084815260200190815260200160002081905550600190506200038e565b600090505b92915050565b600080836001016000848152602001908152602001600020541415905092915050565b6126f580620003c76000396000f3fe608060405234801561001057600080fd5b506004361061012b5760003560e01c80639010d07c116100ad578063ca15c87311610071578063ca15c8731461031a578063d547741f1461034a578063df74e02814610366578063f2fde38b14610382578063f516440c1461039e5761012b565b80639010d07c1461026257806391d1485414610292578063a217fddf146102c2578063b5b68afe146102e0578063b6b55f25146102fe5761012b565b806336568abe116100f457806336568abe146101e4578063715018a614610200578063827a560b1461020a57806385f438c1146102265780638da5cb5b146102445761012b565b8062f714ce1461013057806301ffc9a71461014c578063144fa6d71461017c578063248a9ca3146101985780632f2ff15d146101c8575b600080fd5b61014a60048036038101906101459190611978565b6103bc565b005b61016660048036038101906101619190611a10565b6105a9565b6040516101739190611a58565b60405180910390f35b61019660048036038101906101919190611ab1565b610623565b005b6101b260048036038101906101ad9190611b14565b6106e3565b6040516101bf9190611b50565b60405180910390f35b6101e260048036038101906101dd9190611b6b565b610703565b005b6101fe60048036038101906101f99190611b6b565b610724565b005b6102086107a7565b005b610224600480360381019061021f9190611bd7565b61082f565b005b61022e6108c8565b60405161023b9190611b50565b60405180910390f35b61024c6108ec565b6040516102599190611c13565b60405180910390f35b61027c60048036038101906102779190611c2e565b610915565b6040516102899190611c13565b60405180910390f35b6102ac60048036038101906102a79190611b6b565b610944565b6040516102b99190611a58565b60405180910390f35b6102ca6109af565b6040516102d79190611b50565b60405180910390f35b6102e86109b6565b6040516102f59190611a58565b60405180910390f35b61031860048036038101906103139190611c6e565b6109c9565b005b610334600480360381019061032f9190611b14565b610ad8565b6040516103419190611caa565b60405180910390f35b610364600480360381019061035f9190611b6b565b610afc565b005b610380600480360381019061037b9190611c6e565b610b1d565b005b61039c60048036038101906103979190611cc5565b610ba3565b005b6103a6610c9a565b6040516103b39190611caa565b60405180910390f35b6103c4610db0565b73ffffffffffffffffffffffffffffffffffffffff166103e26108ec565b73ffffffffffffffffffffffffffffffffffffffff16148061043157506104307f10dac8c06a04bec0b551627dad28bc00d6516b0caacd1c7b345fcdb5211334e461042b610db0565b610944565b5b610470576040517f08c379a000000000000000000000000000000000000000000000000000000000815260040161046790611d4f565b60405180910390fd5b600560009054906101000a900460ff166104bf576040517f08c379a00000000000000000000000000000000000000000000000000000000081526004016104b690611dbb565b60405180910390fd5b600454821115610504576040517f08c379a00000000000000000000000000000000000000000000000000000000081526004016104fb90611e27565b60405180910390fd5b600360009054906101000a900473ffffffffffffffffffffffffffffffffffffffff1673ffffffffffffffffffffffffffffffffffffffff1663a9059cbb82846040518363ffffffff1660e01b8152600401610561929190611e47565b6020604051808303816000875af1158015610580573d6000803e3d6000fd5b505050506040513d601f19601f820116820180604052508101906105a49190611e85565b505050565b60007f5a05180f000000000000000000000000000000000000000000000000000000007bffffffffffffffffffffffffffffffffffffffffffffffffffffffff1916827bffffffffffffffffffffffffffffffffffffffffffffffffffffffff1916148061061c575061061b82610db8565b5b9050919050565b61062b610db0565b73ffffffffffffffffffffffffffffffffffffffff166106496108ec565b73ffffffffffffffffffffffffffffffffffffffff161461069f576040517f08c379a000000000000000000000000000000000000000000000000000000000815260040161069690611efe565b60405180910390fd5b80600360006101000a81548173ffffffffffffffffffffffffffffffffffffffff021916908373ffffffffffffffffffffffffffffffffffffffff16021790555050565b600060016000838152602001908152602001600020600101549050919050565b61070c826106e3565b61071581610e32565b61071f8383610e46565b505050565b61072c610db0565b73ffffffffffffffffffffffffffffffffffffffff168173ffffffffffffffffffffffffffffffffffffffff1614610799576040517f08c379a000000000000000000000000000000000000000000000000000000000815260040161079090611f90565b60405180910390fd5b6107a38282610e7a565b5050565b6107af610db0565b73ffffffffffffffffffffffffffffffffffffffff166107cd6108ec565b73ffffffffffffffffffffffffffffffffffffffff1614610823576040517f08c379a000000000000000000000000000000000000000000000000000000000815260040161081a90611efe565b60405180910390fd5b61082d6000610eae565b565b610837610db0565b73ffffffffffffffffffffffffffffffffffffffff166108556108ec565b73ffffffffffffffffffffffffffffffffffffffff16146108ab576040517f08c379a00000000000000000000000000000000000000000000000000000000081526004016108a290611efe565b60405180910390fd5b80600560006101000a81548160ff02191690831515021790555050565b7f10dac8c06a04bec0b551627dad28bc00d6516b0caacd1c7b345fcdb5211334e481565b60008060009054906101000a900473ffffffffffffffffffffffffffffffffffffffff16905090565b600061093c8260026000868152602001908152602001600020610f7290919063ffffffff16565b905092915050565b60006001600084815260200190815260200160002060000160008373ffffffffffffffffffffffffffffffffffffffff1673ffffffffffffffffffffffffffffffffffffffff16815260200190815260200160002060009054906101000a900460ff16905092915050565b6000801b81565b600560009054906101000a900460ff1681565b80600360009054906101000a900473ffffffffffffffffffffffffffffffffffffffff1673ffffffffffffffffffffffffffffffffffffffff166370a08231336040518263ffffffff1660e01b8152600401610a259190611c13565b602060405180830381865afa158015610a42573d6000803e3d6000fd5b505050506040513d601f19601f82011682018060405250810190610a669190611fc5565b1015610aa7576040517f08c379a0000000000000000000000000000000000000000000000000000000008152600401610a9e9061203e565b60405180910390fd5b610ad5600360009054906101000a900473ffffffffffffffffffffffffffffffffffffffff16333084610f8c565b50565b6000610af560026000848152602001908152602001600020611015565b9050919050565b610b05826106e3565b610b0e81610e32565b610b188383610e7a565b505050565b610b25610db0565b73ffffffffffffffffffffffffffffffffffffffff16610b436108ec565b73ffffffffffffffffffffffffffffffffffffffff1614610b99576040517f08c379a0000000000000000000000000000000000000000000000000000000008152600401610b9090611efe565b60405180910390fd5b8060048190555050565b610bab610db0565b73ffffffffffffffffffffffffffffffffffffffff16610bc96108ec565b73ffffffffffffffffffffffffffffffffffffffff1614610c1f576040517f08c379a0000000000000000000000000000000000000000000000000000000008152600401610c1690611efe565b60405180910390fd5b600073ffffffffffffffffffffffffffffffffffffffff168173ffffffffffffffffffffffffffffffffffffffff1603610c8e576040517f08c379a0000000000000000000000000000000000000000000000000000000008152600401610c85906120d0565b60405180910390fd5b610c9781610eae565b50565b60045481565b610caa8282610944565b610d7c57600180600084815260200190815260200160002060000160008373ffffffffffffffffffffffffffffffffffffffff1673ffffffffffffffffffffffffffffffffffffffff16815260200190815260200160002060006101000a81548160ff021916908315150217905550610d21610db0565b73ffffffffffffffffffffffffffffffffffffffff168173ffffffffffffffffffffffffffffffffffffffff16837f2f8788117e7eff1d82e926ec794901d17c78024a50270940304540a733656f0d60405160405180910390a45b5050565b6000610da8836000018373ffffffffffffffffffffffffffffffffffffffff1660001b61102a565b905092915050565b600033905090565b60007f7965db0b000000000000000000000000000000000000000000000000000000007bffffffffffffffffffffffffffffffffffffffffffffffffffffffff1916827bffffffffffffffffffffffffffffffffffffffffffffffffffffffff19161480610e2b5750610e2a8261109a565b5b9050919050565b610e4381610e3e610db0565b611104565b50565b610e508282610ca0565b610e758160026000858152602001908152602001600020610d8090919063ffffffff16565b505050565b610e8482826111a1565b610ea9816002600085815260200190815260200160002061128390919063ffffffff16565b505050565b60008060009054906101000a900473ffffffffffffffffffffffffffffffffffffffff169050816000806101000a81548173ffffffffffffffffffffffffffffffffffffffff021916908373ffffffffffffffffffffffffffffffffffffffff1602179055508173ffffffffffffffffffffffffffffffffffffffff168173ffffffffffffffffffffffffffffffffffffffff167f8be0079c531659141344cd1fd0a4f28419497f9722a3daafe3b4186f6b6457e060405160405180910390a35050565b6000610f8183600001836112b3565b60001c905092915050565b61100f846323b872dd60e01b858585604051602401610fad939291906120f0565b604051602081830303815290604052907bffffffffffffffffffffffffffffffffffffffffffffffffffffffff19166020820180517bffffffffffffffffffffffffffffffffffffffffffffffffffffffff83818316178352505050506112de565b50505050565b6000611023826000016113a5565b9050919050565b600061103683836113b6565b61108f578260000182908060018154018082558091505060019003906000526020600020016000909190919091505582600001805490508360010160008481526020019081526020016000208190555060019050611094565b600090505b92915050565b60007f01ffc9a7000000000000000000000000000000000000000000000000000000007bffffffffffffffffffffffffffffffffffffffffffffffffffffffff1916827bffffffffffffffffffffffffffffffffffffffffffffffffffffffff1916149050919050565b61110e8282610944565b61119d576111338173ffffffffffffffffffffffffffffffffffffffff1660146113d9565b6111418360001c60206113d9565b604051602001611152929190612230565b6040516020818303038152906040526040517f08c379a000000000000000000000000000000000000000000000000000000000815260040161119491906122b4565b60405180910390fd5b5050565b6111ab8282610944565b1561127f5760006001600084815260200190815260200160002060000160008373ffffffffffffffffffffffffffffffffffffffff1673ffffffffffffffffffffffffffffffffffffffff16815260200190815260200160002060006101000a81548160ff021916908315150217905550611224610db0565b73ffffffffffffffffffffffffffffffffffffffff168173ffffffffffffffffffffffffffffffffffffffff16837ff6391f5c32d9c69d2a47ea670b442974b53935d1edc7fd64eb21e047a839171b60405160405180910390a45b5050565b60006112ab836000018373ffffffffffffffffffffffffffffffffffffffff1660001b611615565b905092915050565b60008260000182815481106112cb576112ca6122d6565b5b9060005260206000200154905092915050565b6000611340826040518060400160405280602081526020017f5361666545524332303a206c6f772d6c6576656c2063616c6c206661696c65648152508573ffffffffffffffffffffffffffffffffffffffff166117299092919063ffffffff16565b90506000815111156113a057808060200190518101906113609190611e85565b61139f576040517f08c379a000000000000000000000000000000000000000000000000000000000815260040161139690612377565b60405180910390fd5b5b505050565b600081600001805490509050919050565b600080836001016000848152602001908152602001600020541415905092915050565b6060600060028360026113ec91906123c6565b6113f69190612408565b67ffffffffffffffff81111561140f5761140e61243c565b5b6040519080825280601f01601f1916602001820160405280156114415781602001600182028036833780820191505090505b5090507f300000000000000000000000000000000000000000000000000000000000000081600081518110611479576114786122d6565b5b60200101907effffffffffffffffffffffffffffffffffffffffffffffffffffffffffffff1916908160001a9053507f7800000000000000000000000000000000000000000000000000000000000000816001815181106114dd576114dc6122d6565b5b60200101907effffffffffffffffffffffffffffffffffffffffffffffffffffffffffffff1916908160001a9053506000600184600261151d91906123c6565b6115279190612408565b90505b60018111156115c7577f3031323334353637383961626364656600000000000000000000000000000000600f861660108110611569576115686122d6565b5b1a60f81b8282815181106115805761157f6122d6565b5b60200101907effffffffffffffffffffffffffffffffffffffffffffffffffffffffffffff1916908160001a905350600485901c9450806115c09061246b565b905061152a565b506000841461160b576040517f08c379a0000000000000000000000000000000000000000000000000000000008152600401611602906124e0565b60405180910390fd5b8091505092915050565b6000808360010160008481526020019081526020016000205490506000811461171d5760006001826116479190612500565b905060006001866000018054905061165f9190612500565b90508181146116ce5760008660000182815481106116805761167f6122d6565b5b90600052602060002001549050808760000184815481106116a4576116a36122d6565b5b90600052602060002001819055508387600101600083815260200190815260200160002081905550505b856000018054806116e2576116e1612534565b5b600190038181906000526020600020016000905590558560010160008681526020019081526020016000206000905560019350505050611723565b60009150505b92915050565b60606117388484600085611741565b90509392505050565b606082471015611786576040517f08c379a000000000000000000000000000000000000000000000000000000000815260040161177d906125d5565b60405180910390fd5b61178f85611855565b6117ce576040517f08c379a00000000000000000000000000000000000000000000000000000000081526004016117c590612641565b60405180910390fd5b6000808673ffffffffffffffffffffffffffffffffffffffff1685876040516117f791906126a8565b60006040518083038185875af1925050503d8060008114611834576040519150601f19603f3d011682016040523d82523d6000602084013e611839565b606091505b5091509150611849828286611878565b92505050949350505050565b6000808273ffffffffffffffffffffffffffffffffffffffff163b119050919050565b60608315611888578290506118d8565b60008351111561189b5782518084602001fd5b816040517f08c379a00000000000000000000000000000000000000000000000000000000081526004016118cf91906122b4565b60405180910390fd5b9392505050565b600080fd5b6000819050919050565b6118f7816118e4565b811461190257600080fd5b50565b600081359050611914816118ee565b92915050565b600073ffffffffffffffffffffffffffffffffffffffff82169050919050565b60006119458261191a565b9050919050565b6119558161193a565b811461196057600080fd5b50565b6000813590506119728161194c565b92915050565b6000806040838503121561198f5761198e6118df565b5b600061199d85828601611905565b92505060206119ae85828601611963565b9150509250929050565b60007fffffffff0000000000000000000000000000000000000000000000000000000082169050919050565b6119ed816119b8565b81146119f857600080fd5b50565b600081359050611a0a816119e4565b92915050565b600060208284031215611a2657611a256118df565b5b6000611a34848285016119fb565b91505092915050565b60008115159050919050565b611a5281611a3d565b82525050565b6000602082019050611a6d6000830184611a49565b92915050565b6000611a7e8261193a565b9050919050565b611a8e81611a73565b8114611a9957600080fd5b50565b600081359050611aab81611a85565b92915050565b600060208284031215611ac757611ac66118df565b5b6000611ad584828501611a9c565b91505092915050565b6000819050919050565b611af181611ade565b8114611afc57600080fd5b50565b600081359050611b0e81611ae8565b92915050565b600060208284031215611b2a57611b296118df565b5b6000611b3884828501611aff565b91505092915050565b611b4a81611ade565b82525050565b6000602082019050611b656000830184611b41565b92915050565b60008060408385031215611b8257611b816118df565b5b6000611b9085828601611aff565b9250506020611ba185828601611963565b9150509250929050565b611bb481611a3d565b8114611bbf57600080fd5b50565b600081359050611bd181611bab565b92915050565b600060208284031215611bed57611bec6118df565b5b6000611bfb84828501611bc2565b91505092915050565b611c0d8161193a565b82525050565b6000602082019050611c286000830184611c04565b92915050565b60008060408385031215611c4557611c446118df565b5b6000611c5385828601611aff565b9250506020611c6485828601611905565b9150509250929050565b600060208284031215611c8457611c836118df565b5b6000611c9284828501611905565b91505092915050565b611ca4816118e4565b82525050565b6000602082019050611cbf6000830184611c9b565b92915050565b600060208284031215611cdb57611cda6118df565b5b6000611ce984828501611963565b91505092915050565b600082825260208201905092915050565b7f43616c6c6572206973206e6f7420612077697468647261776572000000000000600082015250565b6000611d39601a83611cf2565b9150611d4482611d03565b602082019050919050565b60006020820190508181036000830152611d6881611d2c565b9050919050565b7f5769746864726177206973206e6f7420617661696c61626c6500000000000000600082015250565b6000611da5601983611cf2565b9150611db082611d6f565b602082019050919050565b60006020820190508181036000830152611dd481611d98565b9050919050565b7f457863656564206d6178696d756d20616d6f756e740000000000000000000000600082015250565b6000611e11601583611cf2565b9150611e1c82611ddb565b602082019050919050565b60006020820190508181036000830152611e4081611e04565b9050919050565b6000604082019050611e5c6000830185611c04565b611e696020830184611c9b565b9392505050565b600081519050611e7f81611bab565b92915050565b600060208284031215611e9b57611e9a6118df565b5b6000611ea984828501611e70565b91505092915050565b7f4f776e61626c653a2063616c6c6572206973206e6f7420746865206f776e6572600082015250565b6000611ee8602083611cf2565b9150611ef382611eb2565b602082019050919050565b60006020820190508181036000830152611f1781611edb565b9050919050565b7f416363657373436f6e74726f6c3a2063616e206f6e6c792072656e6f756e636560008201527f20726f6c657320666f722073656c660000000000000000000000000000000000602082015250565b6000611f7a602f83611cf2565b9150611f8582611f1e565b604082019050919050565b60006020820190508181036000830152611fa981611f6d565b9050919050565b600081519050611fbf816118ee565b92915050565b600060208284031215611fdb57611fda6118df565b5b6000611fe984828501611fb0565b91505092915050565b7f496e73756666696369656e74206163636f756e742062616c616e636500000000600082015250565b6000612028601c83611cf2565b915061203382611ff2565b602082019050919050565b600060208201905081810360008301526120578161201b565b9050919050565b7f4f776e61626c653a206e6577206f776e657220697320746865207a65726f206160008201527f6464726573730000000000000000000000000000000000000000000000000000602082015250565b60006120ba602683611cf2565b91506120c58261205e565b604082019050919050565b600060208201905081810360008301526120e9816120ad565b9050919050565b60006060820190506121056000830186611c04565b6121126020830185611c04565b61211f6040830184611c9b565b949350505050565b600081905092915050565b7f416363657373436f6e74726f6c3a206163636f756e7420000000000000000000600082015250565b6000612168601783612127565b915061217382612132565b601782019050919050565b600081519050919050565b60005b838110156121a757808201518184015260208101905061218c565b60008484015250505050565b60006121be8261217e565b6121c88185612127565b93506121d8818560208601612189565b80840191505092915050565b7f206973206d697373696e6720726f6c6520000000000000000000000000000000600082015250565b600061221a601183612127565b9150612225826121e4565b601182019050919050565b600061223b8261215b565b915061224782856121b3565b91506122528261220d565b915061225e82846121b3565b91508190509392505050565b6000601f19601f8301169050919050565b60006122868261217e565b6122908185611cf2565b93506122a0818560208601612189565b6122a98161226a565b840191505092915050565b600060208201905081810360008301526122ce818461227b565b905092915050565b7f4e487b7100000000000000000000000000000000000000000000000000000000600052603260045260246000fd5b7f5361666545524332303a204552433230206f7065726174696f6e20646964206e60008201527f6f74207375636365656400000000000000000000000000000000000000000000602082015250565b6000612361602a83611cf2565b915061236c82612305565b604082019050919050565b6000602082019050818103600083015261239081612354565b9050919050565b7f4e487b7100000000000000000000000000000000000000000000000000000000600052601160045260246000fd5b60006123d1826118e4565b91506123dc836118e4565b92508282026123ea816118e4565b9150828204841483151761240157612400612397565b5b5092915050565b6000612413826118e4565b915061241e836118e4565b925082820190508082111561243657612435612397565b5b92915050565b7f4e487b7100000000000000000000000000000000000000000000000000000000600052604160045260246000fd5b6000612476826118e4565b91506000820361248957612488612397565b5b600182039050919050565b7f537472696e67733a20686578206c656e67746820696e73756666696369656e74600082015250565b60006124ca602083611cf2565b91506124d582612494565b602082019050919050565b600060208201905081810360008301526124f9816124bd565b9050919050565b600061250b826118e4565b9150612516836118e4565b925082820390508181111561252e5761252d612397565b5b92915050565b7f4e487b7100000000000000000000000000000000000000000000000000000000600052603160045260246000fd5b7f416464726573733a20696e73756666696369656e742062616c616e636520666f60008201527f722063616c6c0000000000000000000000000000000000000000000000000000602082015250565b60006125bf602683611cf2565b91506125ca82612563565b604082019050919050565b600060208201905081810360008301526125ee816125b2565b9050919050565b7f416464726573733a2063616c6c20746f206e6f6e2d636f6e7472616374000000600082015250565b600061262b601d83611cf2565b9150612636826125f5565b602082019050919050565b6000602082019050818103600083015261265a8161261e565b9050919050565b600081519050919050565b600081905092915050565b600061268282612661565b61268c818561266c565b935061269c818560208601612189565b80840191505092915050565b60006126b48284612677565b91508190509291505056fea26469706673582212202c8d1df25f43ba34dafc018536ac3e3965a2c7faa8a7131ec5b0994b0b227fe464736f6c63430008110033",
  "linkReferences": {},
  "deployedLinkReferences": {}
}